{"abi":[{"type":"function","name":"MIN_BLOCKS_WINDOW","inputs":[],"outputs":[{"name":"","type":"uint256","internalType":"uint256"}],"stateMutability":"view"},{"type":"function","name":"MIN_DROP_BPS","inputs":[],"outputs":[{"name":"","type":"uint256","internalType":"uint256"}],"stateMutability":"view"},{"type":"function","name":"MIN_DROP_WEI","inputs":[],"outputs":[{"name":"","type":"uint256","internalType":"uint256"}],"stateMutability":"view"},{"type":"function","name":"collect","inputs":[],"outputs":[{"name":"","type":"bytes","internalType":"bytes"}],"stateMutability":"view"},{"type":"function","name":"shouldRespond","inputs":[{"name":"data","type":"bytes[]","internalType":"bytes[]"}],"outputs":[{"name":"should","type":"bool","internalType":"bool"},{"name":"payload","type":"bytes","internalType":"bytes"}],"stateMutability":"pure"},{"type":"function","name":"watched","inputs":[],"outputs":[{"name":"","type":"address[]","internalType":"address[]"}],"stateMutability":"view"}],"bytecode":{"object":"0x6080604052604051806020016040528061dead73ffffffffffffffffffffffffffffffffffffffff1673ffffffffffffffffffffffffffffffffffffffff168152505f906001610050929190610062565b5034801561005c575f5ffd5b50610104565b828054828255905f5260205f209081019282156100d8579160200282015b828111156100d7578251825f6101000a81548173ffffffffffffffffffffffffffffffffffffffff021916908373ffffffffffffffffffffffffffffffffffffffff16021790555091602001919060010190610080565b5b5090506100e591906100e9565b5090565b5b80821115610100575f815f9055506001016100ea565b5090565b611279806101115f395ff3fe608060405234801561000f575f5ffd5b5060043610610060575f3560e01c80633d46f21f1461006457806344e6e4ce14610082578063ca0872e0146100b3578063cc9a0349146100d1578063d87affea146100ef578063e52253811461010d575b5f5ffd5b61006c61012b565b60405161007991906107ca565b60405180910390f35b61009c60048036038101906100979190610855565b610130565b6040516100aa92919061092a565b60405180910390f35b6100bb6104e8565b6040516100c891906107ca565b60405180910390f35b6100d96104f3565b6040516100e69190610a3f565b60405180910390f35b6100f761057d565b60405161010491906107ca565b60405180910390f35b610115610583565b6040516101229190610a5f565b60405180910390f35b600281565b5f60606002848490501015610167575f60405160200161014f90610ad9565b604051602081830303815290604052915091506104e1565b5f6101e6858560028888905061017d9190610b24565b81811061018d5761018c610b57565b5b905060200281019061019f9190610b90565b8080601f0160208091040260200160405190810160405280939291908181526020018383808284375f81840152601f19601f82011690508083019250505050505050610718565b90505f61026786866001898990506101fe9190610b24565b81811061020e5761020d610b57565b5b90506020028101906102209190610b90565b8080601f0160208091040260200160405190810160405280939291908181526020018383808284375f81840152601f19601f82011690508083019250505050505050610718565b905080604001515182604001515114158061028657505f826040015151145b156102b5575f60405160200161029b90610c3c565b6040516020818303038152906040529350935050506104e1565b815f0151815f01511115806102db57506002825f0151825f01516102d99190610b24565b105b1561030a575f6040516020016102f090610ca4565b6040516020818303038152906040529350935050506104e1565b5f5f90505b8160400151518110156104ba578260400151818151811061033357610332610b57565b5b602002602001015173ffffffffffffffffffffffffffffffffffffffff168260400151828151811061036857610367610b57565b5b602002602001015173ffffffffffffffffffffffffffffffffffffffff16036104ad575f836060015182815181106103a3576103a2610b57565b5b602002602001015190505f836060015183815181106103c5576103c4610b57565b5b602002602001015190508181106103dd5750506104ad565b5f81836103ea9190610b24565b905066b1a2bc2ec50000811015610403575050506104ad565b5f8303610412575050506104ad565b5f83612710836104229190610cc2565b61042c9190610d30565b90506107d081101561044157505050506104ad565b8560400151858151811061045857610457610b57565b5b60200260200101518484848a5f01518a5f01518c602001518c6020015160405160200161048c989796959493929190610d6f565b604051602081830303815290604052975060019850505050505050506104e1565b808060010191505061030f565b505f6040516020016104cb90610e35565b6040516020818303038152906040529350935050505b9250929050565b66b1a2bc2ec5000081565b60605f80548060200260200160405190810160405280929190818152602001828054801561057357602002820191905f5260205f20905b815f9054906101000a900473ffffffffffffffffffffffffffffffffffffffff1673ffffffffffffffffffffffffffffffffffffffff168152602001906001019080831161052a575b5050505050905090565b6107d081565b60605f5f8054905090505f8167ffffffffffffffff8111156105a8576105a7610e53565b5b6040519080825280602002602001820160405280156105d65781602001602082028036833780820191505090505b5090505f8267ffffffffffffffff8111156105f4576105f3610e53565b5b6040519080825280602002602001820160405280156106225781602001602082028036833780820191505090505b5090505f5f90505b83811015610703575f5f828154811061064657610645610b57565b5b905f5260205f20015f9054906101000a900473ffffffffffffffffffffffffffffffffffffffff1690508084838151811061068457610683610b57565b5b602002602001019073ffffffffffffffffffffffffffffffffffffffff16908173ffffffffffffffffffffffffffffffffffffffff16815250508073ffffffffffffffffffffffffffffffffffffffff16318383815181106106e9576106e8610b57565b5b60200260200101818152505050808060010191505061062a565b506107104342848461075a565b935050505090565b61072061078c565b81806020019051810190610734919061109f565b845f01856020018660400187606001849052849052848152508481525050505050919050565b60608484848460405160200161077394939291906111f2565b6040516020818303038152906040529050949350505050565b60405180608001604052805f81526020015f815260200160608152602001606081525090565b5f819050919050565b6107c4816107b2565b82525050565b5f6020820190506107dd5f8301846107bb565b92915050565b5f604051905090565b5f5ffd5b5f5ffd5b5f5ffd5b5f5ffd5b5f5ffd5b5f5f83601f840112610815576108146107f4565b5b8235905067ffffffffffffffff811115610832576108316107f8565b5b60208301915083602082028301111561084e5761084d6107fc565b5b9250929050565b5f5f6020838503121561086b5761086a6107ec565b5b5f83013567ffffffffffffffff811115610888576108876107f0565b5b61089485828601610800565b92509250509250929050565b5f8115159050919050565b6108b4816108a0565b82525050565b5f81519050919050565b5f82825260208201905092915050565b8281835e5f83830152505050565b5f601f19601f8301169050919050565b5f6108fc826108ba565b61090681856108c4565b93506109168185602086016108d4565b61091f816108e2565b840191505092915050565b5f60408201905061093d5f8301856108ab565b818103602083015261094f81846108f2565b90509392505050565b5f81519050919050565b5f82825260208201905092915050565b5f819050602082019050919050565b5f73ffffffffffffffffffffffffffffffffffffffff82169050919050565b5f6109aa82610981565b9050919050565b6109ba816109a0565b82525050565b5f6109cb83836109b1565b60208301905092915050565b5f602082019050919050565b5f6109ed82610958565b6109f78185610962565b9350610a0283610972565b805f5b83811015610a32578151610a1988826109c0565b9750610a24836109d7565b925050600181019050610a05565b5085935050505092915050565b5f6020820190508181035f830152610a5781846109e3565b905092915050565b5f6020820190508181035f830152610a7781846108f2565b905092915050565b5f82825260208201905092915050565b7f4e4545445f4d4f52455f53414d504c45530000000000000000000000000000005f82015250565b5f610ac3601183610a7f565b9150610ace82610a8f565b602082019050919050565b5f6020820190508181035f830152610af081610ab7565b9050919050565b7f4e487b71000000000000000000000000000000000000000000000000000000005f52601160045260245ffd5b5f610b2e826107b2565b9150610b39836107b2565b9250828203905081811115610b5157610b50610af7565b5b92915050565b7f4e487b71000000000000000000000000000000000000000000000000000000005f52603260045260245ffd5b5f5ffd5b5f5ffd5b5f5ffd5b5f5f83356001602003843603038112610bac57610bab610b84565b5b80840192508235915067ffffffffffffffff821115610bce57610bcd610b88565b5b602083019250600182023603831315610bea57610be9610b8c565b5b509250929050565b7f4241445f534e415053484f545f44494d454e53494f4e530000000000000000005f82015250565b5f610c26601783610a7f565b9150610c3182610bf2565b602082019050919050565b5f6020820190508181035f830152610c5381610c1a565b9050919050565b7f57494e444f575f544f4f5f534d414c4c000000000000000000000000000000005f82015250565b5f610c8e601083610a7f565b9150610c9982610c5a565b602082019050919050565b5f6020820190508181035f830152610cbb81610c82565b9050919050565b5f610ccc826107b2565b9150610cd7836107b2565b9250828202610ce5816107b2565b91508282048414831517610cfc57610cfb610af7565b5b5092915050565b7f4e487b71000000000000000000000000000000000000000000000000000000005f52601260045260245ffd5b5f610d3a826107b2565b9150610d45836107b2565b925082610d5557610d54610d03565b5b828204905092915050565b610d69816109a0565b82525050565b5f61010082019050610d835f83018b610d60565b610d90602083018a6107bb565b610d9d60408301896107bb565b610daa60608301886107bb565b610db760808301876107bb565b610dc460a08301866107bb565b610dd160c08301856107bb565b610dde60e08301846107bb565b9998505050505050505050565b7f4e4f5f445241494e0000000000000000000000000000000000000000000000005f82015250565b5f610e1f600883610a7f565b9150610e2a82610deb565b602082019050919050565b5f6020820190508181035f830152610e4c81610e13565b9050919050565b7f4e487b71000000000000000000000000000000000000000000000000000000005f52604160045260245ffd5b610e89816107b2565b8114610e93575f5ffd5b50565b5f81519050610ea481610e80565b92915050565b610eb3826108e2565b810181811067ffffffffffffffff82111715610ed257610ed1610e53565b5b80604052505050565b5f610ee46107e3565b9050610ef08282610eaa565b919050565b5f67ffffffffffffffff821115610f0f57610f0e610e53565b5b602082029050602081019050919050565b610f29816109a0565b8114610f33575f5ffd5b50565b5f81519050610f4481610f20565b92915050565b5f610f5c610f5784610ef5565b610edb565b90508083825260208201905060208402830185811115610f7f57610f7e6107fc565b5b835b81811015610fa85780610f948882610f36565b845260208401935050602081019050610f81565b5050509392505050565b5f82601f830112610fc657610fc56107f4565b5b8151610fd6848260208601610f4a565b91505092915050565b5f67ffffffffffffffff821115610ff957610ff8610e53565b5b602082029050602081019050919050565b5f61101c61101784610fdf565b610edb565b9050808382526020820190506020840283018581111561103f5761103e6107fc565b5b835b8181101561106857806110548882610e96565b845260208401935050602081019050611041565b5050509392505050565b5f82601f830112611086576110856107f4565b5b815161109684826020860161100a565b91505092915050565b5f5f5f5f608085870312156110b7576110b66107ec565b5b5f6110c487828801610e96565b94505060206110d587828801610e96565b935050604085015167ffffffffffffffff8111156110f6576110f56107f0565b5b61110287828801610fb2565b925050606085015167ffffffffffffffff811115611123576111226107f0565b5b61112f87828801611072565b91505092959194509250565b5f81519050919050565b5f82825260208201905092915050565b5f819050602082019050919050565b61116d816107b2565b82525050565b5f61117e8383611164565b60208301905092915050565b5f602082019050919050565b5f6111a08261113b565b6111aa8185611145565b93506111b583611155565b805f5b838110156111e55781516111cc8882611173565b97506111d78361118a565b9250506001810190506111b8565b5085935050505092915050565b5f6080820190506112055f8301876107bb565b61121260208301866107bb565b818103604083015261122481856109e3565b905081810360608301526112388184611196565b90509594505050505056fea2646970667358221220c1d9ea030b415b1df713fabce4f45d86f7cff528d8aac6cbf5d04fd96179a40264736f6c634300081e0033","linkReferences":{}},"methodIdentifiers":{"MIN_BLOCKS_WINDOW()":"3d46f21f","MIN_DROP_BPS()":"d87affea","MIN_DROP_WEI()":"ca0872e0","collect()":"e5225381","shouldRespond(bytes[])":"44e6e4ce","watched()":"cc9a0349"},"id":19}